{
  "contractName": "PushButton",
  "abi": [
    {
      "constant": true,
      "inputs": [],
      "name": "nextTimeoutBlock",
      "outputs": [
        {
          "name": "",
          "type": "uint256"
        }
      ],
      "payable": false,
      "stateMutability": "view",
      "type": "function"
    },
    {
      "constant": true,
      "inputs": [],
      "name": "startBlock",
      "outputs": [
        {
          "name": "",
          "type": "uint256"
        }
      ],
      "payable": false,
      "stateMutability": "view",
      "type": "function"
    },
    {
      "constant": true,
      "inputs": [],
      "name": "title",
      "outputs": [
        {
          "name": "",
          "type": "string"
        }
      ],
      "payable": false,
      "stateMutability": "view",
      "type": "function"
    },
    {
      "constant": true,
      "inputs": [],
      "name": "interval",
      "outputs": [
        {
          "name": "",
          "type": "uint256"
        }
      ],
      "payable": false,
      "stateMutability": "view",
      "type": "function"
    },
    {
      "constant": true,
      "inputs": [],
      "name": "totalPush",
      "outputs": [
        {
          "name": "",
          "type": "uint256"
        }
      ],
      "payable": false,
      "stateMutability": "view",
      "type": "function"
    },
    {
      "inputs": [],
      "payable": false,
      "stateMutability": "nonpayable",
      "type": "constructor"
    },
    {
      "anonymous": false,
      "inputs": [
        {
          "indexed": true,
          "name": "_address",
          "type": "address"
        },
        {
          "indexed": false,
          "name": "_totalPush",
          "type": "uint256"
        },
        {
          "indexed": false,
          "name": "_nextTimeoutBlock",
          "type": "uint256"
        }
      ],
      "name": "ButtonPushed",
      "type": "event"
    },
    {
      "constant": false,
      "inputs": [],
      "name": "push",
      "outputs": [
        {
          "name": "",
          "type": "bool"
        }
      ],
      "payable": false,
      "stateMutability": "nonpayable",
      "type": "function"
    },
    {
      "constant": true,
      "inputs": [],
      "name": "getBlock",
      "outputs": [
        {
          "name": "",
          "type": "uint256"
        }
      ],
      "payable": false,
      "stateMutability": "view",
      "type": "function"
    }
  ],
  "bytecode": "0x6060604052610654600155341561001557600080fd5b436000819055506001546000540160028190555060006003819055506105aa806100406000396000f300606060405260043610610083576000357c0100000000000000000000000000000000000000000000000000000000900463ffffffff1680632e97766d1461008857806345bae054146100b157806348cd4cb1146100da5780634a79d50c146101035780638035f0ce14610191578063947a36fb146101be578063f92307fc146101e7575b600080fd5b341561009357600080fd5b61009b610210565b6040518082815260200191505060405180910390f35b34156100bc57600080fd5b6100c4610218565b6040518082815260200191505060405180910390f35b34156100e557600080fd5b6100ed61021e565b6040518082815260200191505060405180910390f35b341561010e57600080fd5b610116610224565b6040518080602001828103825283818151815260200191508051906020019080838360005b8381101561015657808201518184015260208101905061013b565b50505050905090810190601f1680156101835780820380516001836020036101000a031916815260200191505b509250505060405180910390f35b341561019c57600080fd5b6101a46102c2565b604051808215151515815260200191505060405180910390f35b34156101c957600080fd5b6101d1610368565b6040518082815260200191505060405180910390f35b34156101f257600080fd5b6101fa61036e565b6040518082815260200191505060405180910390f35b600043905090565b60025481565b60005481565b60048054600181600116156101000203166002900480601f0160208091040260200160405190810160405280929190818152602001828054600181600116156101000203166002900480156102ba5780601f1061028f576101008083540402835291602001916102ba565b820191906000526020600020905b81548152906001019060200180831161029d57829003601f168201915b505050505081565b60006002546102cf610210565b111515156102dc57600080fd5b60016003600082825401925050819055506001546102f8610210565b01600281905550610307610374565b3373ffffffffffffffffffffffffffffffffffffffff167f95d4487d375c98cfd95f58cfff603334d142a33402e11df401014b615f717fc6600354600254604051808381526020018281526020019250505060405180910390a26001905090565b60015481565b60035481565b600a60035410156103d0576040805190810160405280600681526020017fe5aba9e99b9e0000000000000000000000000000000000000000000000000000815250600490805190602001906103ca9291906104d9565b506104d7565b6014600354101561042c576040805190810160405280600981526020017fe5889de5bf83e880850000000000000000000000000000000000000000000000815250600490805190602001906104269291906104d9565b506104d6565b60646003541015610488576040805190810160405280600a81526020017fe69c89e9bb9ee78c9b2000000000000000000000000000000000000000000000815250600490805190602001906104829291906104d9565b506104d5565b6040805190810160405280600d81526020017fe58aa0e897a4e9b7b934696e3100000000000000000000000000000000000000815250600490805190602001906104d39291906104d9565b505b5b5b565b828054600181600116156101000203166002900490600052602060002090601f016020900481019282601f1061051a57805160ff1916838001178555610548565b82800160010185558215610548579182015b8281111561054757825182559160200191906001019061052c565b5b5090506105559190610559565b5090565b61057b91905b8082111561057757600081600090555060010161055f565b5090565b905600a165627a7a72305820ba4235d45462bddc81b6adb6a43fa6f820fbb2eb4072089bf3dff9a2359154200029",
  "source": "pragma solidity ^0.4.13;\n\ncontract PushButton {\n    uint public startBlock; // 記錄合約起始block\n    uint public interval = 108 * 60 / 4; // 108分鐘 (Kovan testnet)\n    uint public nextTimeoutBlock; // 下一次timeout block\n    uint public totalPush; // 總共按了幾次\n    string public title; // 依據totalPush可獲得不同title, just for fun \n\n    event ButtonPushed(address indexed _address, uint _totalPush, uint _nextTimeoutBlock);\n\n    modifier isTimeout() {\n        require( getBlock() <= nextTimeoutBlock );\n        _;\n    }\n\n    function PushButton() {\n        startBlock = block.number; // 紀錄合約部署當下的block number\n        nextTimeoutBlock = startBlock + interval; // 計算timeout\n        totalPush = 0;\n    }\n\n    function push() isTimeout() returns (bool) {\n        totalPush += 1; // total push +1\n        nextTimeoutBlock = getBlock() + interval; // 更新nextTimeoutBlock\n        checkTitle(); // 更新title, just for fun\n        ButtonPushed(msg.sender, totalPush, nextTimeoutBlock); //發event\n        return true;\n    }\n\n\n    function getBlock() constant returns (uint) {\n        return block.number;\n    }\n\n    function checkTitle() internal {\n        if (totalPush < 10) {\n            title = \"嫩雞\";\n        } else if (totalPush < 20) {\n            title = \"初心者\";\n        } else if (totalPush < 100) {\n            title = \"有點猛 \";\n        } else {\n            title = \"加藤鷹4in1\";\n        }\n    }\n}",
  "sourcePath": "/Users/allenhsu/Documents/project/blockchain-partice/push-button/contracts/PushButton.sol",
  "compiler": {
    "name": "solc",
    "version": "0.4.19+commit.c4cbbb05.Emscripten.clang"
  },
  "schemaVersion": "1.0.1",
  "updatedAt": "2018-02-25T03:45:01.050Z"
}